:020000040800F2
:1000000088070020B5010008853200084D2D000842
:1000100081320008FD0300080D39000800000000CF
:100020000000000000000000000000000D36000885
:100030004907000800000000F53200086536000896
:10004000CF010008CF010008CF010008CF01000850
:10005000CF010008CF010008CF010008CF01000840
:10006000CF010008CF010008CF010008CF01000830
:10007000CF010008CF010008CF010008CF01000820
:10008000CF010008CF010008CF010008CF01000810
:10009000CF010008CF010008CF010008CF01000800
:1000A000CF010008CF010008CF010008CF010008F0
:1000B000CF010008CF010008CF010008CF010008E0
:1000C000CF010008CF010008CF010008CF010008D0
:1000D000CF010008CF010008CF010008CF010008C0
:1000E000CF010008CF010008CF01000800F002F89E
:1000F00000F050F814A696E8000CB244B344DA4578
:1001000001D100F047F8BAE80F000FA696E83000DA
:10011000A5EB040504EB0607AAEB0704A7F101070A
:100120004FEA15154FEA3414A4F10104AC4201D38F
:1001300000F030F813F0010F18BFFB1A43F0010371
:1001400000F001F8DBE71847D8490000F849000043
:10015000103A24BF78C878C1FAD8520724BF30C8F3
:1001600030C144BF04680C60704700007047000055
:100170000023002400250026103A28BF78C1FBD8B0
:10018000520728BF30C148BF0B6070471FB51FBD65
:1001900010B510BD00F058F81146FFF7F7FF03F057
:1001A000A3FC00F076F803B4FFF7F2FF03BC00F005
:1001B0007DF800000948804709480047FEE7FEE750
:1001C000FEE7FEE7FEE7FEE7FEE7FEE7FEE7FEE707
:1001D00004480549054A064B70470000FD360008F3
:1001E000ED00000888010020880700208803002017
:1001F000880300204FF0000200B51346944696464F
:10020000203922BFA0E80C50A0E80C50B1F1200129
:10021000BFF4F7AF090728BFA0E80C5048BF0CC0D7
:100220005DF804EB890028BF40F8042B08BF704735
:1002300048BF20F8022B11F0804F18BF00F8012BA7
:100240007047704770477047754600F02BF8AE4610
:1002500005006946534620F00700854618B020B5D2
:10026000FFF7B6FFBDE820404FF000064FF0000753
:100270004FF000084FF0000BAC46ACE8C009ACE80A
:10028000C009ACE8C009ACE8C00921F007018D46FF
:10029000704710B50446AFF300802046BDE810401B
:1002A000FFF781BF00487047100000200149182067
:1002B000ABBEFEE7260002007047000080B584B0A8
:1002C000029000200190029800688068C00770B317
:1002D000FFE702980168886820F00100886000F05C
:1002E00039FF0190FFE7029800688068C007E8B115
:1002F000FFE700F02FFF0199401A032815D3FFE70D
:10030000029800688068C00770B1FFE70299886AA8
:1003100040F0100088620299C86A40F00100C8628B
:1003200001208DF80F0006E0FFE7DCE7FFE7002083
:100330008DF80F00FFE79DF80F0004B080BD0000AE
:1003400080B584B00290002001900090029800686F
:100350008068C007002849D1FFE7029801688868D3
:1003600040F00100886040F20000C2F20000006826
:100370004DF68361C4F21B31A0FB0110800C00908C
:10038000FFE7009820B1FFE7009801380090F8E7F8
:1003900000F0E0FE0190FFE7029800688068C00767
:1003A00018BBFFE700F0D6FE0199401A03281BD3C3
:1003B000FFE7029800688068C007A0B9FFE70299CC
:1003C000886A40F0100088620299C86A40F0010013
:1003D000C862FFE70299002081F82400FFE70120AE
:1003E0008DF80F0006E0FFE7D6E7FFE700208DF865
:1003F0000F00FFE79DF80F0004B080BDFFE7FEE7A8
:1004000080B58CB0002002908DF810008DF811009E
:100410008DF812008DF813008DF80C008DF80D008A
:100420008DF80E008DF80F008DF828008DF829004A
:100430008DF82A008DF82B008DF8240008218DF806
:1004400025108DF826008DF827008DF820008DF8F6
:1004500021008DF822008DF823008DF81C008DF806
:100460001D008DF81E008DF81F008DF818008DF806
:1004700019008DF81A008DF81B008DF814008DF806
:1004800015108DF816008DF8170002F07FFC20B9CA
:10049000FFE74FF0FF300B9050E002F04DFD20B928
:1004A000FFE76FF001000B9048E02020232104AA11
:1004B00002F0B6FD2420272103AA02F0B1FD00209E
:1004C000019003210AAA02F0ABFD0420009007214D
:1004D00009AA02F0A5FD08200B2108AA02F0A0FD40
:1004E0001020132107AA02F09BFD1420172106AA51
:1004F00002F096FD18201B2105AA02F091FD00993B
:10050000602002F06BFD7020012102F067FD01996F
:100510002A2002F063FD2920B12102F05FFD28208E
:10052000852102F05BFD02F031FD20B9FFE76FF09D
:1005300002000B9002E001200B90FFE70B980CB03B
:1005400080BD000080B588B00790002001908DF834
:100550001B0002F0FDFB014601988DF808109DF884
:100560000810B0EB911F6CD0FFE79DF808104FF01A
:10057000FF3000EB91106FF00201084207D1FFE756
:1005800090200DF10E010D2202F07CFC0EE09DF892
:1005900008100220B0EB911F07D1FFE794200DF166
:1005A0000E010D2202F06EFCFFE7FFE79DF8080048
:1005B000C0F3C100022810D1FFE70799022008709C
:1005C0009DF80E209DF80F309DF810009DF8111039
:1005D00003F036FA079948600BE00799012008708C
:1005E0009DF80E009DF80F1003F068FA0799486017
:1005F000FFE79DF81200079908729DF8130007990C
:1006000048729DF81400079988729DF815000799A3
:10061000C8729DF81600079908739DF8170007998E
:1006200048739DF81800079988739DF81900079979
:10063000C8739DF81A000799087401208DF81B00F3
:10064000FFE79DF81B0008B080BD000080B586B0B4
:10065000059000208DF8130040F24C11C2F2000109
:10066000087048708870C87002F02EFC014640F295
:100670007400C2F20000017000788008C007C8B999
:10068000FFE705994868097840F24C12C2F200026F
:10069000039203F085F903990598027A00F10903A2
:1006A000402002F0A1FB812002F02CFC01208DF8FB
:1006B000130045E040F27400C2F200000078000927
:1006C000C007C8B9FFE705994868097840F24C129D
:1006D000C2F20002029203F063F902990598027ACD
:1006E00000F10903422002F07FFB822002F00AFCA5
:1006F00001208DF8130022E040F27400C2F20000E5
:1007000000788009C007C8B9FFE7059948680978EB
:1007100040F24C12C2F20002019203F041F9019939
:100720000598027A00F10903442002F05DFB842061
:1007300002F0E8FB01208DF81300FFE7FFE7FFE779
:100740009DF8130006B080BD7047000081B0EFF344
:10075000108072B60090FFE7FEE7000085B00390BE
:10076000029100208DF807000090FFE7039890F8B1
:100770002400012804D1FFE702208DF81300C3E014
:100780000399012081F82400FFE7FFE70298406801
:10079000062812D8FFE703980068406B029A116898
:1007A000526802EB8202053A1F239340984391401E
:1007B000084303990968486329E0029840680C28B7
:1007C00012D8FFE703980068006B029A116852681C
:1007D00002EB8202233A1F2393409843914008433F
:1007E00003990968086311E003980068C06A029AD7
:1007F0001168526802EB8202413A1F2393409843EA
:100800009140084303990968C862FFE7FFE702982F
:1008100000680A2812D3FFE703980068C0680299AD
:100820000A68896802EB42021E3A07239340984304
:100830009140084303990968C86010E00398006874
:10084000006902990A68896802EB42020723934013
:10085000984391400843039909680861FFE70298AB
:100860000068102805D0FFE702980068112840D1E1
:10087000FFE70398006842F20041C4F20101884298
:100880002DD1FFE70398006880680002002825D476
:10089000FFE703980168886840F4000088600298C8
:1008A0000068102819D1FFE740F20000C2F20000F2
:1008B00000684DF68361C4F21B31A0FB0110800C6F
:1008C00000EB800040000090FFE7009820B1FFE7B8
:1008D000009801380090F8E7FFE7FFE708E0039988
:1008E000886A40F02000886201208DF80700FFE749
:1008F000FFE7FFE70399002081F82400FFE79DF858
:1009000007008DF81300FFE79DF8130005B070474E
:1009100081B0009000980068C06C01B07047000082
:1009200080B588B0069000208DF8170004900390E1
:100930000290069820B9FFE701208DF81F00F4E02F
:100940000698806830B1FFE70698007D08B1FFE7A0
:10095000FFE7FFE70698806A50B9FFE70699002095
:10096000C862069981F82400069800F0E3F8FFE7D2
:100970000698FFF7A3FC8DF817000698806AC0065A
:10098000002800F1C480FFE79DF81700002840F020
:10099000BE80FFE70698806A40F0020020F488508D
:1009A0000699886206994868CA691043097B40EA3B
:1009B0004101039808430390069881680120B1F52E
:1009C000807F019008D0FFE7069880680138B0FA70
:1009D00080F040090190FFE701990498CA0740F4AC
:1009E0008071002A18BF084604900698007D0128EF
:1009F0001ED1FFE70698007B70B9FFE70698816972
:100A00004EF20000CFF6FF7000EB4130049908432E
:100A100040F4006004900AE00699886A40F02000E3
:100A200088620699C86A40F00100C862FFE7FFE7E4
:100A300006980068406820F46940049908430699C4
:100A4000096848600698006880684FF2FD71CFF62B
:100A5000E17108400399084306990968886006987F
:100A600081680120B1F5807F009008D0FFE70698EB
:100A700080680138B0FA80F040090090FFE70098E4
:100A800000F00100002818BF4FF48070B0F5807F9F
:100A900009D1FFE7069801690020CFF6F07000EB5E
:100AA00001500290FFE706980068C06A20F47000C9
:100AB0000299084306990968C86206980068806828
:100AC00040F6FE61CFF61F710840039988420CD1B1
:100AD000FFE706990020C8620698806A40F001008E
:100AE00020F002000699886210E00698806A40F0C3
:100AF000100020F00200069988620699C86A40F04A
:100B00000100C86201208DF81700FFE708E0069990
:100B1000886A40F01000886201208DF81700FFE716
:100B20009DF817008DF81F00FFE79DF81F0008B023
:100B300080BD000080B588B0079000200690059029
:100B4000049003900798006842F20041C4F201014A
:100B500088422AD1FFE7FFE741F21800C4F2020001
:100B6000016841F400710160006800F400700290B7
:100B70000298FFE7FFE741F21800C4F202000168A3
:100B800041F008010160006800F008000190019840
:100B9000FFE7022003900320049040F60040C4F2D7
:100BA000010003A900F002F9FFE708B080BD0000D2
:100BB00080B584B0029000208DF80700FFE702980E
:100BC00090F82400012804D1FFE702208DF80F00DF
:100BD000C5E00299012081F82400FFE7FFE70298B1
:100BE000FFF7AEFB8DF807009DF80700002840F0E6
:100BF000AA80FFE70298806A40F4807040F20121E9
:100C00008843029988620298006842F60001C4F2A3
:100C10000101884209D1FFE742F20440C4F2010019
:100C2000006810F4702F03D018E00020B0B9FFE77F
:100C30000299886A20F480108862029800684068EF
:100C40004005002809D5FFE70298806A40F48050EB
:100C500020F4005002998862FFE72CE00299886A2C
:100C600040F4801088620298006842F20041C4F2A9
:100C70000101884209D0FFE70298006842F60001AE
:100C8000C4F20101884209D1FFE742F20440C4F2F4
:100C9000010000684005002803D40BE0012048B99A
:100CA000FFE70298806A40F4805020F400500299D7
:100CB0008862FFE7FFE70298806AC004002806D533
:100CC000FFE70299C86A20F00600C86203E00299B3
:100CD0000020C862FFE7FFE70299002081F82400A6
:100CE000FFE7029801686FF0020008600298006850
:100CF000806800F46020B0F5602F1CD1FFE70298F7
:100D0000006842F60001C4F20101884209D1FFE700
:100D100042F20440C4F20100006810F4702F03D0C6
:100D200009E0002038B9FFE702980168886840F4BC
:100D3000A000886006E002980168886840F480108E
:100D40008860FFE706E0FFE70299002081F82400B1
:100D5000FFE7FFE79DF807008DF80F00FFE79DF81C
:100D60000F0004B080BD000080B584B0039000F097
:100D7000F1F90290039801900198013048B1FFE722
:100D800040F20900C2F20000017801980844019085
:100D9000FFE7FFE700F0DEF90299401A0199884267
:100DA00001D2FFE7F6E704B080BD000090B00F90DD
:100DB0000E9100200D900990FFE70E9800680D99A4
:100DC000C840002800F07F81FFE70D99012088408E
:100DD0000C900E9800680C9908400B900B980C9999
:100DE000884240F06C81FFE70E984068059000282B
:100DF00051D0FFE7059801283AD0FFE7059802286F
:100E00003FD0FFE7059803285FD0FFE7059811283A
:100E100032D0FFE70598122838D0FFE70598002167
:100E2000C1F21101884236D0FFE705980021C1F2D6
:100E3000120188422FD0FFE705980021C1F221015D
:100E4000884228D0FFE705980021C1F2220188429C
:100E500021D0FFE705980021C1F2310188421AD064
:100E6000FFE705980021C1F23201884213D02FE03C
:100E70000E98C06809902CE00E98C0680430099064
:100E800027E00E98C0680830099022E00E98C068EC
:100E90000C3009901DE00E98806818B9FFE7042017
:100EA000099011E00E988068012806D1FFE708201C
:100EB00009900C980F99086105E0082009900C989A
:100EC0000F994861FFE7FFE703E00020099000E089
:100ED000FFE70B98FF2803D8FFE70F98049003E083
:100EE0000F9804300490FFE7049808900B98FF28AF
:100EF00004D8FFE70D988000039006E00D996FF08D
:100F00001F0000EB81000390FFE70398079008980B
:100F10000068079A0F21914088430999914008433E
:100F2000089908600E98C079C006002840F1C68074
:100F3000FFE7FFE741F21800C4F20200016841F048
:100F400001010160006800F0010006900698FFE7CB
:100F50000D9820F003000821C4F2010140580A90C6
:100F60000D9800F0030081000F2000FA01F10A98AB
:100F700088430A900F9840F60001C4F201018842AC
:100F800003D1FFE70020029026E00F9840F60041D1
:100F9000C4F20101884203D1FFE70120019018E06B
:100FA0000F9841F20001C4F20101884203D1FFE72A
:100FB000022000900AE00F9941F20042C4F20102BF
:100FC0000420914208BF03200090FFE700980190A1
:100FD000FFE701980290FFE702980D9901F00301E5
:100FE000890000FA01F10A9808430A900A980D99BD
:100FF00021F003010822C4F2010288500E98807982
:10100000C006002809D5FFE70B9A40F20841C4F258
:10101000010108681043086008E00B9A40F208419B
:10102000C4F20101086890430860FFE70E988079D8
:101030008006002809D5FFE70B9A40F20C41C4F264
:10104000010108681043086008E00B9A40F20C4167
:10105000C4F20101086890430860FFE70E988079A8
:101060008007002809D5FFE70B9A40F20441C4F23B
:10107000010108681043086008E00B9A40F204413F
:10108000C4F20101086890430860FFE70E98807978
:10109000C00748B1FFE70B9A40F20041C4F20101DA
:1010A00008681043086008E00B9A40F20041C4F25F
:1010B0000101086890430860FFE7FFE7FFE70D982C
:1010C00001300D9079E610B07047000082B00190B9
:1010D000ADF8021001988068BDF80210084204D0F3
:1010E000FFE701208DF8010003E000208DF80100EA
:1010F000FFE79DF8010002B07047000083B0029046
:10110000ADF806100298C0680090009ABDF806007D
:1011100002EA0001904340EA01400299086103B0ED
:101120007047000082B00190ADF802108DF80120E8
:101130009DF8010028B1FFE7BDF8020001990861A0
:1011400005E0BDF80200000401990861FFE702B064
:101150007047000040F28010C2F200000068704743
:1011600040F20900C2F20000027840F28011C2F29F
:1011700000010868104408607047000080B542F222
:101180000001C4F20201086840F01000086003206A
:1011900000F08CF80F2000F005F800F03BF800207C
:1011A00080BD000080B582B0009040F20000C2F225
:1011B0000000006840F20901C2F200010A784FF411
:1011C0007A71B1FBF2F1B0FBF1F001F03FFB20B11D
:1011D000FFE701208DF8070018E000980F280DD8D0
:1011E000FFE700994FF0FF30002200F045F800982B
:1011F00040F20C01C2F20001086003E001208DF80A
:10120000070003E000208DF80700FFE79DF80700C6
:1012100002B080BD83B0FFE741F21800C4F20200C3
:10122000016841F001010160006800F001000290D6
:101230000298FFE7FFE741F21C00C4F202000168D8
:1012400041F080510160006800F0805001900198E9
:10125000FFE7FFE70421C4F201010868009000984D
:1012600020F0E0600090009840F00070009000983E
:101270000860FFE703B0704780B586B08DF81700AF
:10128000049103920020029002F042FB02909DF92B
:101290001700019002980499039A01F0F5FF0146A6
:1012A000019802F03DFB06B080BD000080B582B021
:1012B0000190019802F056FB02B080BD80B586B067
:1012C000049000200390029004980078C007002842
:1012D00000F0AC80FFE700208DF8070041F21C0011
:1012E000C4F202000068C000002813D4FFE7FFE743
:1012F00041F21C00C4F20200016841F0805101601B
:10130000006800F0805000900098FFE701208DF801
:101310000700FFE747F20000C4F200000068C005C4
:10132000002822D4FFE747F20001C4F20001086858
:1013300040F480700860FFF70DFF0390FFE747F26D
:101340000000C4F200000068C00500280CD4FFE7CC
:10135000FFF700FF0399401A652804D3FFE7032035
:101360008DF817008AE0EAE7FFE741F22000C4F2B7
:101370000200006800F4407002900298E0B3FFE7BA
:1013800002980499496801F44071884234D0FFE71B
:1013900041F22001C4F20201086820F4407002907A
:1013A00040F24042C4F2422201201060002010604E
:1013B000029808609DF80800C007E0B1FFE7FFF75A
:1013C000C9FE0390FFE741F22000C4F2020000686A
:1013D000800700280ED4FFE7FFF7BCFE0399401AF0
:1013E00041F28931884204D3FFE703208DF81700CA
:1013F00044E0E8E7FFE7FFE741F22001C4F2020121
:10140000086820F44070049A5268104308609DF800
:101410000700012809D1FFE741F21C01C4F20201D3
:10142000086820F080500860FFE7FFE70498007824
:10143000800700280CD5FFE741F20401C4F2020145
:10144000086820F44040049A926810430860FFE75F
:1014500004980078C00600280CD5FFE741F204018B
:10146000C4F20201086820F48000049AD268104394
:101470000860FFE700208DF81700FFE79DF81700D0
:1014800006B080BD80B584B002900191029820B969
:10149000FFE701208DF80F001BE1019842F20001E7
:1014A000C4F20201096801F00701884216D9FFE77A
:1014B00042F20000C4F20200016821F00701019A23
:1014C00011430160006800F007000199884204D0D0
:1014D000FFE701208DF80F00FBE0FFE7029800789E
:1014E000800700282AD5FFE70298007840070028E7
:1014F00009D5FFE741F20401C4F20201086840F493
:10150000E0600860FFE7029800780007002809D52E
:10151000FFE741F20401C4F20201086840F46050A0
:101520000860FFE741F20401C4F20201086820F0FC
:10153000F000029A926810430860FFE70298007872
:10154000C007002860D0FFE70298406801280ED14C
:10155000FFE741F20000C4F20200006880030028A7
:1015600004D4FFE701208DF80F00B2E021E00298DB
:10157000406802280ED1FFE741F20000C4F20200E9
:1015800000688001002804D4FFE701208DF80F00D7
:101590009FE00DE041F20000C4F202000068800705
:1015A000002804D4FFE701208DF80F0091E0FFE749
:1015B000FFE741F20401C4F20201086820F00300D1
:1015C000029A526810430860FFF7C4FD0090FFE7DD
:1015D00041F20400C4F20200006800F00C0002991D
:1015E0004968B0EB810F0ED0FFE7FFF7B3FD00991C
:1015F000401A41F28931884204D3FFE703208DF875
:101600000F0066E0E4E7FFE7019842F20001C4F250
:101610000201096801F00701884216D2FFE742F291
:101620000000C4F20200016821F00701019A114391
:101630000160006800F007000199884204D0FFE7CC
:1016400001208DF80F0044E0FFE702980078400782
:1016500000280CD5FFE741F20401C4F2020108683A
:1016600020F4E060029AD26810430860FFE7029815
:101670000078000700280DD5FFE741F20401C4F20D
:101680000201086820F46050029A126940EAC20020
:101690000860FFE700F022F841F20401C4F2020101
:1016A0000968C9B20A0944F6FC21C0F60001895C48
:1016B000C84040F20001C2F20001086040F20C0094
:1016C000C2F200000068FFF76DFD00208DF80F00EA
:1016D000FFE79DF80F0004B080BD000086B0002039
:1016E0000590049003900290019041F20400C4F22E
:1016F000020000680590059800F00C00014600917A
:1017000000283FD0FFE70098042804D0FFE70098A6
:10171000082806D037E041F20020C0F27A0001909C
:1017200037E00598C0F3834144F60C30C0F6000062
:10173000405C02909DF81600C007C0B1FFE741F27F
:101740000400C4F202000068C0F3404144F61C30BB
:10175000C0F60000405C0490029841F20021C0F203
:101760007A0148430499B0FBF1F0039007E0029836
:1017700040F60011C0F23D0148430390FFE7039893
:10178000019006E0FFE741F20020C0F27A000190EC
:10179000FFE7019806B0704780B586B004900498C2
:1017A00020B9FFE701208DF817002EE30498007898
:1017B000C007002800F0AE80FFE741F20400C4F249
:1017C0000200006800F00C00042813D0FFE741F28B
:1017D0000400C4F20200006800F00C0008281BD1CD
:1017E000FFE741F20400C4F202000068C0030028D1
:1017F00012D5FFE741F20000C4F202000068800346
:10180000002808D5FFE70498406820B9FFE70120C9
:101810008DF81700F9E27CE0FFE704984068B0F526
:10182000803F09D1FFE741F20001C4F202010868DC
:1018300040F48030086032E00498406868B9FFE7FF
:1018400041F20001C4F20201086820F4803008600F
:10185000086820F48020086020E004984068B0F513
:10186000A02F0DD1FFE741F20001C4F20201086888
:1018700040F480200860086840F4803008600CE084
:1018800041F20001C4F20201086820F480300860CF
:10189000086820F480200860FFE7FFE7FFE7FFE724
:1018A00004984068D0B1FFE7FFF754FC0390FFE7CE
:1018B00041F20000C4F202000068800300280CD44A
:1018C000FFE7FFF747FC0399401A652804D3FFE7B9
:1018D00003208DF8170098E2EAE719E0FFF73AFCD9
:1018E0000390FFE741F20000C4F2020000688003A9
:1018F00000280CD5FFE7FFF72DFC0399401A652857
:1019000004D3FFE703208DF817007EE2EAE7FFE744
:10191000FFE7FFE7049800788007002840F18D80FA
:10192000FFE741F20400C4F20200006810F00C0F5F
:1019300013D0FFE741F20400C4F20200006800F097
:101940000C00082829D1FFE741F20400C4F202008C
:101950000068C003002820D4FFE741F20000C4F271
:10196000020000688007002809D5FFE70498006995
:10197000012804D0FFE701208DF8170045E241F26D
:101980000001C4F20201086820F0F800049A5269CC
:1019900040EAC2000860FFE74EE00498006958B3CF
:1019A000FFE70021C4F2422101200860FFF7D2FBCB
:1019B0000390FFE741F20000C4F2020000688007D4
:1019C00000280CD4FFE7FFF7C5FB0399401A032852
:1019D00004D3FFE703208DF8170016E2EAE741F28F
:1019E0000001C4F20201086820F0F800049A52696C
:1019F00040EAC20008601EE00021C4F2422100203B
:101A00000860FFF7A7FB0390FFE741F20000C4F274
:101A100002000068800700280CD5FFE7FFF79AFB5B
:101A20000399401A032804D3FFE703208DF8170019
:101A3000EBE1EAE7FFE7FFE7FFE70498007800073C
:101A4000002848D5FFE70498806918B3FFE740F203
:101A50008041C4F2422101200860FFF77BFB039024
:101A6000FFE741F22400C4F202000068800700286A
:101A70000CD4FFE7FFF76EFB0399401A032804D349
:101A8000FFE703208DF81700BFE1EAE7012001F02E
:101A900033FC1FE040F28041C4F242210020086084
:101AA000FFF758FB0390FFE741F22400C4F2020065
:101AB0000068800700280CD5FFE7FFF74BFB039970
:101AC000401A032804D3FFE703208DF817009CE198
:101AD000EAE7FFE7FFE7049800784007002840F1B5
:101AE000D880FFE700208DF8070041F21C00C4F207
:101AF00002000068C000002813D4FFE7FFE741F2AE
:101B00001C00C4F20200016841F0805101600068CD
:101B100000F0805000900098FFE701208DF807004A
:101B2000FFE747F20000C4F200000068C00500288B
:101B300022D4FFE747F20001C4F20001086840F434
:101B400080700860FFF706FB0390FFE747F2000094
:101B5000C4F200000068C00500280CD4FFE7FFF7BE
:101B6000F9FA0399401A652804D3FFE703208DF89A
:101B700017004AE1EAE7FFE7FFE70498C068012899
:101B800009D1FFE741F22001C4F20201086840F0E8
:101B90000100086031E00498C06868B9FFE741F2CD
:101BA0002001C4F20201086820F001000860086802
:101BB00020F0040008601FE00498C06805280DD1DB
:101BC000FFE741F22001C4F20201086840F004007E
:101BD0000860086840F0010008600CE041F2200154
:101BE000C4F20201086820F001000860086820F0D3
:101BF00004000860FFE7FFE7FFE7FFE70498C0681D
:101C0000E0B1FFE7FFF7A6FA0390FFE741F22000FB
:101C1000C4F202000068800700280ED4FFE7FFF737
:101C200099FA0399401A41F28931884204D3FFE7B7
:101C300003208DF81700E8E0E8E71BE0FFF78AFAD9
:101C40000390FFE741F22000C4F202000068800721
:101C500000280ED5FFE7FFF77DFA0399401A41F2FD
:101C60008931884204D3FFE703208DF81700CCE0C8
:101C7000E8E7FFE79DF80700012809D1FFE741F2F7
:101C80001C01C4F20201086820F080500860FFE7E0
:101C9000FFE70498C069002800F0B380FFE741F235
:101CA0000400C4F20200006800F00C00082800F0F4
:101CB0008280FFE70498C06902285CD1FFE76021B9
:101CC000C4F2422100200860FFF744FA0390FFE7C6
:101CD00041F20000C4F202000068800100280CD527
:101CE000FFE7FFF737FA0399401A032804D3FFE709
:101CF00003208DF8170088E0EAE70498006AB0F541
:101D0000803F0CD1FFE741F20401C4F202010868F0
:101D100020F40030049A926810430860FFE741F213
:101D20000401C4F20201086820F47410049B1A6ACA
:101D30005B6A1A43104308606021C4F2422101200B
:101D40000860FFF707FA0390FFE741F20000C4F2D2
:101D500002000068800100280CD4FFE7FFF7FAF9C1
:101D60000399401A032804D3FFE703208DF81700D6
:101D70004BE0EAE71EE06021C4F242210020086047
:101D8000FFF7E8F90390FFE741F20000C4F2020018
:101D90000068800100280CD5FFE7FFF7DBF9039905
:101DA000401A032804D3FFE703208DF817002CE026
:101DB000EAE7FFE724E00498C069012804D1FFE7BF
:101DC00001208DF8170020E041F20400C4F2020067
:101DD00000680290029800F480300499096A8842F1
:101DE00008D1FFE7029800F470100499496A88420C
:101DF00004D0FFE701208DF8170006E0FFE7FFE7BA
:101E0000FFE700208DF81700FFE79DF8170006B0E8
:101E100080BD000081B00090009890F8510001B0A2
:101E20007047000080B584B00290029820B9FFE7A7
:101E300001208DF80F006EE00298406A60B9FFE75C
:101E400002984068B0F5827F01D1FFE703E0029974
:101E50000020C861FFE705E00299002008610299AF
:101E60004861FFE7029900208862029890F85100CB
:101E700040B9FFE70299002081F85000029800F075
:101E80004FF8FFE70299022081F85100029801689B
:101E9000086820F040000860029A019211685068BA
:101EA000D2F808C0D36800F482700CF4044C60448B
:101EB00003F400631844136903F0020318445369E0
:101EC00003F001031844936903F400731844D369C1
:101ED00003F038031844136A03F080031843926A2E
:101EE00002F40052104308600298016882690420DD
:101EF00000EA1240486002980168C86920F4006056
:101F0000C861029900204865029A012182F85110A7
:101F10008DF80F00FFE79DF80F0004B080BD0000B2
:101F200080B58AB00990002008900790069005902F
:101F30000998006843F20001C4F20101884237D1D8
:101F4000FFE7FFE741F21800C4F20200016841F424
:101F500080510160006800F4805004900498FFE70D
:101F6000FFE741F21800C4F20200016841F00401E9
:101F70000160006800F0040003900398FFE7A020D0
:101F80000590022006900320089040F60000C4F25D
:101F90000100019005A90291FEF708FF019802993E
:101FA00040220592002206920792FEF7FFFEFFE70D
:101FB0000AB080BD80B588B006900591ADF81220BA
:101FC0000393069890F85100012804D0FFE70220FF
:101FD0008DF81F0011E106984068B0F5827F16D198
:101FE000FFE70698806890B9FFE70699042081F81A
:101FF00051000698059ABDF812300399EC46CCF8CA
:102000000010114600F050FA8DF81F00F5E0FFF7C0
:10201000A1F80290059820B1FFE7BDF8120020B9A1
:10202000FFE701208DF81F00E7E0FFE7069890F832
:102030005000012804D1FFE702208DF81F00DCE0EA
:102040000699012081F85000FFE7FFE70699042078
:1020500081F851000699002048650599069A916318
:10206000BDF81210069A9187BDF81210069AD18712
:1020700006990863069988860699C88606990864B1
:102080000699486406988068B0F5004F0DD1FFE7C7
:1020900006980168086820F040000860069801680A
:1020A000086820F480400860FFE706980068006830
:1020B00000F04000402807D0FFE706980168086854
:1020C00040F040000860FFE70698C068D0BBFFE71B
:1020D000FFE70698C08FA0B3FFE706980068806806
:1020E000C00778B1FFE706980068007B0699896B06
:1020F00008700699886B013088630699C88F01388B
:10210000C8871DE0FFF726F80299401A0399884214
:1021100004D3FFE70398013018B9FFE7039870B9BB
:10212000FFE70699012081F85100FFE7069900209A
:1021300081F85000FFE703208DF81F005DE0FFE706
:10214000C7E739E0FFE70698C08FA0B3FFE706981E
:1021500000688068C00778B1FFE706980068C0682B
:102160000699896B08800699886B02308863069906
:10217000C88F0138C8871DE0FEF7ECFF0299401AAE
:102180000399884204D3FFE70398013018B9FFE7A9
:10219000039870B9FFE70699012081F85100FFE725
:1021A0000699002081F85000FFE703208DF81F00FA
:1021B00023E0FFE7C7E7FFE706980399029A01F0DB
:1021C000B9F820B1FFE7069920204865FFE7069996
:1021D000012081F85100FFE70699002081F85000A6
:1021E000FFE70698406D20B1FFE701208DF81F0042
:1021F00003E000208DF81F00FFE79DF81F0008B0E6
:1022000080BD000080B588B006900591ADF8122021
:102210000393FEF79FFF0290BDF81200ADF8060091
:10222000069890F85100012804D0FFE702208DF8AD
:102230001F0034E1059820B1FFE7BDF8120020B976
:10224000FFE701208DF81F0029E1FFE7069890F8CD
:102250005000012804D1FFE702208DF81F001EE185
:102260000699012081F85000FFE7FFE70699032057
:1022700081F851000699002048650599069A116376
:10228000BDF81210069A9186BDF81210069AD186F2
:1022900006998863069988870699C88706994864CD
:1022A0000699086406988068B0F5004F0DD1FFE7E5
:1022B00006980168086820F04000086006980168E8
:1022C000086840F480400860FFE7069800680068EE
:1022D00000F04000402807D0FFE706980168086832
:1022E00040F040000860FFE70698C068B0F5006F56
:1022F00051D1FFE70698406828B1FFE7BDF8060016
:1023000001280ED1FFE706980168006B0088C860BD
:102310000699086B023008630699C88E0138C88692
:10232000FFE7FFE70698C08EA0B3FFE706980068B6
:102330008068800700280ED5FFE706980168006BCB
:102340000088C8600699086B023008630699C88E39
:102350000138C8861DE0FEF7FDFE0299401A039978
:10236000884204D3FFE70398013018B9FFE70398C8
:1023700070B9FFE70699012081F85100FFE706993F
:10238000002081F85000FFE703208DF81F0086E051
:10239000FFE7C7E750E00698406828B1FFE7BDF8BF
:1023A000060001280ED1FFE706980168006B00784F
:1023B00008730699086B013008630699C88E0138C6
:1023C000C886FFE7FFE70698C08EA0B3FFE7069830
:1023D00000688068800700280ED5FFE7069801682E
:1023E000006B007808730699086B01300863069942
:1023F000C88E0138C8861DE0FEF7ACFE0299401A6F
:102400000399884204D3FFE70398013018B9FFE726
:10241000039870B9FFE70699012081F85100FFE7A2
:102420000699002081F85000FFE703208DF81F0077
:1024300035E0FFE7C7E7FFE706980399029A00F047
:10244000D5FF20B1FFE7069920204865FFE70698F1
:10245000806870B9FFE7FFE70020009006980068E9
:10246000C068009006980068806800900098FFE7B8
:10247000FFE70699012081F85100FFE70699002047
:1024800081F85000FFE70698406D20B1FFE701207A
:102490008DF81F0003E000208DF81F00FFE79DF876
:1024A0001F0008B080BD000080B58CB0DDF838C0DA
:1024B0000A9009910892ADF81E3001200390FEF7B2
:1024C00049FE04900A9890F851008DF817000A9878
:1024D00040680690BDF81E00ADF81C009DF817007E
:1024E000012812D0FFE70698B0F5827F09D1FFE7F7
:1024F0000A98806828B9FFE79DF81700042804D0DF
:10250000FFE702208DF82F009BE1099838B1FFE723
:10251000089820B1FFE7BDF81E0020B9FFE70120B1
:102520008DF82F008DE1FFE70A9890F85000012800
:1025300004D1FFE702208DF82F0082E10A990120E3
:1025400081F85000FFE7FFE70A9890F8510004284F
:1025500005D0FFE70A99052081F85100FFE70A99A5
:102560000020486508990A9A9163BDF81E100A9ADE
:10257000D187BDF81E100A9A918709990A9A1163AA
:10258000BDF81E100A9AD186BDF81E100A9A9186CF
:102590000A9908640A9948640A980068006800F07B
:1025A0004000402807D0FFE70A980168086840F01B
:1025B00040000860FFE70A98C068B0F5006F40F07F
:1025C0008180FFE70A98406828B1FFE7BDF81C004A
:1025D00001280ED1FFE70A980168006B0088C860E7
:1025E0000A99086B023008630A99C88E0138C886B8
:1025F000FFE7FFE70A98C18E0120019039B9FFE794
:102600000A98C08F002818BF01200190FFE70198A9
:10261000C007002855D0FFE70A9800688068800747
:10262000002818D5FFE70A98C08EA0B1FFE70398ED
:10263000012810D1FFE70A980168006B0088C86084
:102640000A99086B023008630A99C88E0138C88657
:1026500000200390FFE70A9800688068C007A8B1CF
:10266000FFE70A98C08F88B1FFE70A980068C06842
:102670000A99896B08800A99886B023088630A99E5
:10268000C88F0138C88701200390FFE7FEF762FD7D
:102690000499401A0E99884212D3FFE70E98013030
:1026A00070B1FFE70A99012081F85100FFE70A990C
:1026B000002081F85000FFE703208DF82F00C0E0D4
:1026C00098E782E00A98406828B1FFE7BDF81C004F
:1026D00001280ED1FFE70A980168006B00780873A3
:1026E0000A99086B013008630A99C88E0138C886B8
:1026F000FFE7FFE70A98C18E0120009039B9FFE794
:102700000A98C08F002818BF01200090FFE70098AA
:10271000C007002858D0FFE70A9800688068800743
:10272000002818D5FFE70A98C08EA0B1FFE70398EC
:10273000012810D1FFE70A980168006B0078087340
:102740000A99086B013008630A99C88E0138C88657
:1027500000200390FFE70A9800688068C007A8B1CE
:10276000FFE70A98C08F88B1FFE70A980068C06841
:102770000A99896B08700A99886B013088630A99F5
:10278000C88F0138C88701200390FFE7FEF7E2FCFD
:102790000499401A0E99884204D3FFE70E9801303D
:1027A00018B9FFE70E9870B9FFE70A99012081F880
:1027B0005100FFE70A99002081F85000FFE703204D
:1027C0008DF82F003DE095E7FFE70A980E99049AEF
:1027D00000F00CFE68B1FFE70A9920204865FFE78A
:1027E0000A99002081F85000FFE701208DF82F00A2
:1027F00027E00A98806870B9FFE7FFE700200290A1
:102800000A980068C06802900A9800688068029080
:102810000298FFE7FFE70A99012081F85100FFE7DE
:102820000A99002081F85000FFE70A98406D20B116
:10283000FFE701208DF82F0003E000208DF82F0026
:10284000FFE79DF82F000CB080BD000080B582B07E
:102850000190019800F0DCFE02B080BD85B00390CD
:102860000291FFE7039890F83C00012804D1FFE7AC
:1028700002208DF813005BE00399012081F83C00F1
:10288000FFE7FFE70399022081F83D000398006805
:10289000406801900398006880680090019820F0DB
:1028A0007000019002980168019808430190019816
:1028B0000399096848600398006842F60041C4F231
:1028C0000101884218D0FFE703980068B0F1804FFB
:1028D00012D0FFE70398006840F20041C4F2000103
:1028E000884209D0FFE70398006840F60001C4F26F
:1028F000000188420ED1FFE7009820F08000009090
:10290000029841680098084300900098039909686C
:102910008860FFE70399012081F83D00FFE70399F4
:10292000002081F83C00FFE700208DF81300FFE74E
:102930009DF8130005B0704780B582B000900098F4
:1029400020B9FFE701208DF807003FE0009890F8DC
:102950003D0040B9FFE70099002081F83C00009855
:1029600000F038F8FFE70099022081F83D00009957
:1029700051F8040B00F0C4FE0099012081F84600D4
:10298000FFE70099012081F83E00009981F83F009F
:10299000009981F84000009981F84100FFE7FFE7C6
:1029A0000099012081F84200009981F843000099C4
:1029B00081F84400009981F84500FFE70099012063
:1029C00081F83D0000208DF80700FFE79DF8070023
:1029D00002B080BD82B001900198006842F60041CB
:1029E000C4F20101884210D1FFE7FFE741F218006D
:1029F000C4F20200016841F400610160006800F463
:102A0000006000900098FFE7FFE702B07047000009
:102A100083B00190019890F83D00012804D0FFE7B1
:102A200001208DF80B0041E00199022081F83D0062
:102A30000198006842F60041C4F20101884218D0B2
:102A4000FFE701980068B0F1804F12D0FFE70198CE
:102A5000006840F20041C4F20001884209D0FFE75B
:102A60000198006840F60001C4F20001884212D1CA
:102A7000FFE701980068806800F007000090009868
:102A8000062807D0FFE701980168086840F00100B8
:102A90000860FFE706E001980168086840F001005F
:102AA0000860FFE700208DF80B00FFE79DF80B00A2
:102AB00003B0704780B586B00490039100208DF874
:102AC0000B00FFE7049890F83C00012804D1FFE7D1
:102AD00002208DF81700ABE00499012081F83C003A
:102AE000FFE7FFE70499022081F83D0004980068A1
:102AF00080680190019820F077000190019820F4FF
:102B00007F400190019804990968886003980068E3
:102B10000090002872D0FFE7009810286ED0FFE7E1
:102B2000009820286AD0FFE70098302866D0FFE799
:102B30000098402855D0FFE70098502837D0FFE78D
:102B40000098602840D0FFE7009870280BD0FFE77E
:102B50000098B0F5805F05D0FFE70098B0F5005F02
:102B600016D052E055E004980068039B5A689968B3
:102B7000DB6800F049FE04980068806801900198C5
:102B800040F077000190019804990968886040E05E
:102B900004980068039B5A689968DB6800F034FE6B
:102BA00004980168886840F48040886031E00498A7
:102BB0000068039A5168D26800F056FE04980068D5
:102BC000502100F03BFE24E004980068039A51680D
:102BD000D26800F071FE04980068602100F02EFEBB
:102BE00017E004980068039A5168D26800F03CFE30
:102BF00004980068402100F021FE0AE00498006873
:102C00000399096800F01AFE03E001208DF80B001B
:102C1000FFE70499012081F83D00FFE704990020B7
:102C200081F83C00FFE79DF80B008DF81700FFE7E7
:102C30009DF8170006B080BD80B586B000200090DA
:102C40000390029040F60040C4F20100802101226E
:102C5000FEF768FA009840F20411C2F20001096818
:102C60004862FFE740F20410C2F200000068406AC8
:102C7000092801D8FFE7F5E740F60040C4F201005B
:102C800080210022FEF74EFAFEF764FA0490FFE777
:102C900040F60040C4F201004021FEF717FA60B987
:102CA000FFE7FEF757FA0499401A0B2804D3FFE711
:102CB0000020ADF8160044E0EAE740F20410C2F24A
:102CC00000000068406A0390FEF744FA0490FFE7B2
:102CD00040F60040C4F201004021FEF7F7F960B170
:102CE000FFE7FEF737FA0499401A332804D3FFE7C9
:102CF0000020ADF8160024E0EAE740F20410C2F22A
:102D000000000068406A029002980399401A01F09E
:102D10000EFC4CF29C42CBF2200246F67203C3F644
:102D2000A17301F017FC00224FF0804301F074FA08
:102D300001F0CEFBADF80600BDF80600ADF81600B8
:102D4000FFE7BDF8160006B080BD0000FFE7FEE714
:102D500080B584B040F60040C4F201000290012129
:102D600001910022FEF7DEF9B02000F097FB00F0A1
:102D700073FB019A014602988DF80F101146FEF779
:102D8000D1F99DF80F0004B080BD000080B582B07D
:102D900040F60040C4F2010001221146FEF7C2F9DC
:102DA0000A208DF80600FFE740F2AC00C2F20000F6
:102DB000FFF730F8012804D1FFE701208DF8070064
:102DC0000EE09DF8060001388DF80600FFE79DF83B
:102DD00006000028E8DCFFE700208DF80700FFE789
:102DE0009DF8070002B080BD80B586B08DF8170051
:102DF00004918DF80F20029340F60040C4F20100C8
:102E00000090012101910022FEF78CF99DF8170036
:102E100000F044FB0498042100F050FB9DF80F00E3
:102E200000F03CFB02989DF80F1000F047FB009863
:102E3000019A1146FEF776F906B080BD80B584B0E0
:102E40008DF80F0040F60040C4F20100029001210D
:102E500001910022FEF766F9032000F01FFB9DF8A8
:102E60000F0000F01BFB00F0F7FA019A01460298F0
:102E70008DF80E101146FEF755F99DF80E0004B0BE
:102E800080BD000080B586B08DF8170004918DF8E4
:102E90000F2040F60040C4F2010001900121029190
:102EA0000022FEF73FF99DF8170000F0F7FA0498AA
:102EB0009DF80F1000F0E0FA0198029A1146FEF713
:102EC00031F906B080BD000080B584B040F6004006
:102ED000C4F201000290012101910022FEF722F9C3
:102EE000A02000F0DBFA00F0B7FA019A0146029840
:102EF0008DF80F101146FEF715F99DF80F0004B07C
:102F000080BD000080B584B08DF80F0040F6004011
:102F1000C4F201000190012102910022FEF702F9A2
:102F20009DF80F0000F0BAFA0198029A1146FEF7D8
:102F3000F9F804B080BD000080B582B00F20802178
:102F400000F04CF80A208DF80600FFE70E20FFF78E
:102F500075FF00F0E000802804D1FFE701208DF824
:102F600007000EE09DF8060001388DF80600FFE727
:102F70009DF806000028E9DCFFE700208DF8070037
:102F8000FFE79DF8070002B080BD000080B582B069
:102F90000F20002100F022F80A208DF80600FFE73C
:102FA0000E20FFF74BFF10F0E00F04D1FFE70120E8
:102FB0008DF807000EE09DF8060001388DF8060038
:102FC000FFE79DF806000028EADCFFE700208DF807
:102FD0000700FFE79DF8070002B080BD80B584B010
:102FE0008DF80F008DF80E1040F60040C4F201007D
:102FF0000190012102910022FEF794F8022000F0D6
:103000004DFA9DF80F0000F049FA9DF80E0000F00F
:1030100045FA0198029A1146FEF784F804B080BD83
:1030200080B584B08DF80F008DF80E10029240F636
:103030000040C4F201000090012101910022FEF73E
:1030400071F8022000F02AFA9DF80F0000F026FA2D
:1030500002989DF80E109DF80F20891A0131C9B20F
:1030600000F02CFA0098019A1146FEF75BF804B0C4
:1030700080BD000080B584B00022039202920192CC
:1030800040F27C00C2F20000009042F20041C4F223
:103090000101016082600121017302754FF4602318
:1030A000C36142600161FDF73BFC18B1FFE7FDF72A
:1030B0004DFBFFE7092001900120029000200390C2
:1030C00040F27C00C2F2000001A9FDF747FB18B1F5
:1030D000FFE7FDF73BFBFFE704B080BD80B58CB098
:1030E00000200B900A9009900890FFE741F2180029
:1030F000C4F20200016841F020010160006800F0A4
:10310000200007900798FFE7FFE741F21800C4F29C
:103110000200016841F004010160006800F0040051
:1031200006900698FFE7FFE741F21800C4F202009C
:10313000016841F008010160006800F00800059096
:103140000598FFE740F60040C4F20100039040F20A
:103150008121009100220292FDF7E4FF009A02997A
:10316000039808920122019209920A9102210B917F
:1031700008A90491FDF71AFE019A029B039804998D
:103180004FF4506CCDF820C009930A92FDF70EFE63
:10319000029A039804994FF27803089309920A92CD
:1031A000FDF704FE0CB080BD80B582B040F2AC00EB
:1031B000C2F20000019043F20001C4F2010101607B
:1031C0004FF48271416000218160C1600161416101
:1031D0004FF4007282611022C26101624162816219
:1031E0000A21C162FEF71EFE18B1FFE7FDF7AEFA35
:1031F000FFE702B080BD000080B588B000210091DB
:1032000007910691059104910391029140F20410F7
:10321000C2F20000019042F60042C4F201020260D4
:103220004722426081604FF6FF72C26001614161D6
:103230008161FFF781FB18B1FFE7FDF787FAFFE730
:103240004FF48050049040F20410C2F2000004A930
:10325000FFF730FC18B1FFE7FDF778FAFFE7002031
:103260000290039040F20410C2F2000002A9FFF79E
:10327000F5FA18B1FFE7FDF769FAFFE708B080BD7E
:10328000FFE7FEE7FFE7FEE788B0079006910592AB
:10329000079800F0070004900498C0F10700052883
:1032A00003D3FFE70420019004E00498C0F1070075
:1032B0000190FFE70198039004980430062803D892
:1032C000FFE70020009003E0049803380090FFE738
:1032D0000098029006980399012202FA01F101393F
:1032E0000840029B984005999A40013A11400843D2
:1032F00008B070477047000082B00190019840F21A
:103300000001C2F200010968C90844F6D352C1F2B3
:103310006202A1FB0221890948430090FFE700BF38
:10332000FFE70098411E00910028F8D1FFE702B0A6
:103330007047000080B586B0049003910292049813
:103340004068B0F5827F13D1FFE704988068B0F53C
:10335000004F06D0FFE704988068B0F5806F07D172
:10336000FFE704980168086820F040000860FFE764
:1033700004984068B0F5827F1BD1FFE7049880680D
:10338000B0F5806F15D1FFE70498039B02996A4658
:1033900011600121002200F0A3F848B1FFE7049971
:1033A000486D40F02000486503208DF8170019E0B3
:1033B00014E00498039B02996A4611608021002260
:1033C00000F08EF848B1FFE70499486D40F0200006
:1033D000486503208DF8170004E0FFE700208DF812
:1033E0001700FFE79DF8170006B080BD80B586B0D6
:1033F0000490039102920498039B02996A4611601B
:103400000221012200F06CF848B1FFE70499486DF1
:1034100040F02000486503208DF8170017E004985D
:10342000039B02996A4611608021002200F058F83F
:1034300048B1FFE70499486D40F02000486503203B
:103440008DF8170003E000208DF81700FFE79DF8C6
:10345000170006B080BD000080B582B040F2AC001D
:10346000C2F200000DF1070101220A23FEF7A2FDBE
:103470009DF8070002B080BD80B582B001908DF844
:10348000031001999DF8032040F2AC00C2F2000045
:103490000A23FEF78FFD02B080BD000080B582B028
:1034A0008DF8070040F2AC00C2F200000DF10701F8
:1034B00001220A23FEF7A6FE02B080BD80B582B0CD
:1034C00001908DF8031001999DF8032040F2AC00A3
:1034D000C2F200000A23FEF795FE02B080BD000094
:1034E00080B58AB0DDF830C0089007918DF81B20B8
:1034F000059305980190FDF72DFE024601980C9961
:10350000891A08440390FDF725FE0290039840F2C3
:103510000001C2F200010968C1F3CB3148430490B5
:10352000FFE708980068806807990840401AB0FAD9
:1035300080F040099DF81B1088425ED0FFE7059897
:103540000130002858D0FFE7FDF704FE0299401A29
:103550000399884204D2FFE70398002842D1FFE78D
:1035600008980168486820F0E000486008984068C2
:10357000B0F5827F13D1FFE708988068B0F5004F5F
:1035800006D0FFE708988068B0F5806F07D1FFE7A5
:1035900008980168086820F040000860FFE7089874
:1035A000806AB0F5005F0FD1FFE7FFE70898016878
:1035B000086820F40050086008980168086840F422
:1035C00000500860FFE7FFE70899012081F85100EB
:1035D000FFE70899002081F85000FFE703208DF8ED
:1035E00027000EE0049818B9FFE700200390FFE7DA
:1035F000049801380490FFE793E700208DF8270036
:10360000FFE79DF827000AB080BD0000704700006A
:1036100080B582B0009000980138B0F1807F03D36C
:10362000FFE70120019019E0009801384EF21401E3
:10363000CEF2000108604FF0FF300F2100F070F96A
:103640004EF21801CEF20001002008604EF2100286
:10365000CEF20002072111600190FFE7019802B04D
:1036600080BD000080B5FDF77BFD80BD80B596B0C4
:103670000CA801902821FCF7BDFD019800230293BE
:103680000B930A9309930893079306930593049366
:10369000039301220C924FF480310D910E931092FE
:1036A0000222139214914FF4E0111591FEF774F871
:1036B00018B1FFE7FDF74AF8FFE70F200790022156
:1036C0000891002009904FF480620A920B9007A89D
:1036D000FDF7D8FE18B1FFE7FDF738F8FFE7022045
:1036E00003904FF40040059003A8FDF7E7FD18B1E3
:1036F000FFE7FDF72BF8FFE716B080BD704700002D
:1037000083B002900191029800680090029842F6FE
:103710000041C4F20101884215D0FFE70298B0F1E0
:10372000804F10D0FFE7029840F20041C4F2000140
:10373000884208D0FFE7029840F60001C4F2000179
:1037400088420AD1FFE7009820F0700000900198AD
:103750004168009808430090FFE7029842F6004154
:10376000C4F20101884215D0FFE70298B0F1804F02
:1037700010D0FFE7029840F20041C4F200018842F5
:1037800008D0FFE7029840F60001C4F20001884229
:103790000AD1FFE7009820F4407000900198C168BA
:1037A000009808430090FFE7009820F080000199FE
:1037B0004969084300900098029908600198806860
:1037C0000299C8620198006802998862029842F6DC
:1037D0000041C4F20101884205D1FFE70198006968
:1037E00002990863FFE70299012048610298006985
:1037F000C00730B1FFE70299086920F001000861B5
:10380000FFE703B07047000085B004900391029277
:103810000193049880680090009820F47F40009005
:1038200003980299019A41EA022101430098084352
:10383000009000980499886005B0704783B00290AA
:103840000191029880680090009820F0700000902C
:1038500001980099084340F00700009000980299F1
:10386000886003B07047000085B004900391029215
:103870000498006A00900499086A20F00100086228
:10388000049880690190019820F0F000019002995D
:10389000019840EA01100190009820F00A00009081
:1038A0000399009808430090019804998861009852
:1038B0000499086205B0704785B0049003910292A4
:1038C0000498006A00900499086A20F010000862C9
:1038D000049880690190019820F470400190029949
:1038E000019840EA01300190009820F0A00000907B
:1038F0000399009840EA01100090019804998861AA
:1039000000980499086205B070470000FFE7FEE7E1
:103910004EF60C50CEF200000068C0F30220704753
:1039200082B08DF8070000919DF9070000280AD4A5
:10393000FFE7009800019DF907104EF20042CEF219
:10394000000288540BE0009800019DF8071001F078
:103950000F014EF61452CEF200028854FFE702B077
:103960007047000083B00290029800F007000090BA
:103970004EF60C51CEF200010868019001984FF606
:10398000FF02104001900198009A40EA02200022B4
:10399000C0F2FA52104301900198086003B07047DA
:1039A00084B003908DF80B10019200208DF8030075
:1039B0009DF80B0002282ED1FFE703980199C870EB
:1039C0000398000A03900398019988700398000AED
:1039D0000390039800F003008DF803000398C000E3
:1039E0000390039800F0E0009DF8031008448DF860
:1039F00003009DF8030008308DF803009DF80300D4
:103A000000F0EB00019948700398000A03900398B6
:103A10000199087011E00199002088700199C8701F
:103A20000398400103900398019948700398000A95
:103A30000390039801990870FFE704B070470000F5
:103A400084B08DF80F008DF80E108DF80D208DF8D4
:103A50000C300020029001909DF80C0000F0030053
:103A60008DF803009DF80C0040098DF802009DF8C8
:103A70000D00C000019001989DF8021008440190CB
:103A800001988000019001989DF80310084401906E
:103A900001980002019001989DF80F1008440190D0
:103AA00001980002019001989DF80E1008440190C1
:103AB00001980290029804B07047000083B08DF81E
:103AC0000B008DF80A10002001909DF80B00C0003B
:103AD000009000989DF80A1000EB5110009000989B
:103AE0000190019803B0704780B590B000200A9013
:103AF0000F90FDF743FBFFF7B9FDFFF7EFFAFFF774
:103B0000B9FAFFF751FBFFF777FB40F27C00C2F2F6
:103B10000000FDF74DF8FCF773FC40F20410C2F210
:103B20000000FEF775FF0A9A40F60040C4F201005B
:103B300009908021FDF7F6FA09980A9A4FF400716E
:103B4000FDF7F0FAFFE740F60040C4F2010008215B
:103B5000FDF7BCFA014601200029089077D0FFE765
:103B600040F60040C4F201002021FDF7AFFA014603
:103B70000120002908906AD0FFE740F60040C4F217
:103B800001004FF48061FDF7A1FA014601200029F0
:103B900008905CD0FFE740F60040C4F201004FF40B
:103BA0000061FDF793FA01460120002908904ED0EC
:103BB000FFE740F60040C4F201004FF48071FDF7CA
:103BC00085FA014601200029089040D0FFE740F621
:103BD0000040C4F201004FF40051FDF777FA0146AE
:103BE0000120089099B3FFE740F60040C4F20100BD
:103BF0004FF40041FDF76AFA01460120089031B305
:103C0000FFE740F60040C4F201004FF48051FDF799
:103C10005DFA014601200890C9B1FFE740F6004077
:103C2000C4F201004FF48041FDF750FA0146012033
:103C3000089061B1FFE740F60040C4F20100102196
:103C4000FDF744FAB0FA80F040090890FFE70898C1
:103C5000C00720B1FFE70A20FDF786F873E7FFE70A
:103C600040F25410C2F20000FCF76CFC08B3FFE70E
:103C700040F25410C2F200004068032818D1FFE758
:103C800040F25410C2F20000C07B8DF833009DF862
:103C9000330060B9FFE740F27201C2F20001002078
:103CA000087040F26811C2F200010880FFE7FFE7E8
:103CB000FFE700208DF8340040F60040C4F2010018
:103CC00007904FF480710691FDF700FA06990246BD
:103CD000079840F27803C2F200031A70FDF7F6F974
:103CE00038B9FFE79DF8340040F001008DF834004A
:103CF000FFE740F60040C4F201004FF40051FDF729
:103D0000E5F938B9FFE79DF8340040F002008DF87E
:103D10003400FFE740F60040C4F201004FF40041D8
:103D2000FDF7D4F938B9FFE79DF8340040F00400FE
:103D30008DF83400FFE740F60040C4F201004FF474
:103D40008051FDF7C3F938B9FFE79DF8340040F022
:103D500008008DF83400FFE740F60040C4F201008F
:103D60004FF48041FDF7B2F9A8B9FFE71420FCF742
:103D7000FBFF40F60040C4F201004FF48041FDF724
:103D8000A5F938B9FFE79DF8340040F010008DF830
:103D90003400FFE7FFE700208DF8350040F60040D3
:103DA000C4F201000821FDF791F938B9FFE79DF849
:103DB000350040F001008DF83500FFE740F6004087
:103DC000C4F201002021FDF781F938B9FFE79DF821
:103DD000350040F002008DF83500FFE740F6004066
:103DE000C4F201004FF48061FDF770F938B9FFE7C4
:103DF0009DF8350040F004008DF83500FFE740F6EF
:103E00000040C4F201004FF40061FDF75FF938B9DA
:103E1000FFE79DF8350040F008008DF83500FFE71A
:103E200040F60040C4F201001021FDF74FF938B907
:103E3000FFE79DF8350040F010008DF83500FFE7F2
:103E400040F20400C2F2000003900088ADF8360092
:103E5000FEF7F2FE014640F27000C2F2000001805F
:103E60000088ADF8380040F27C00C2F2000000F09B
:103E7000B1F90399ADF83000BDF830000988401A57
:103E800004900028059002D50498404205900598BA
:103E9000102808DBFFE7BDF8300040F20401C2F251
:103EA00000010880FFE79DF834008DF82F009DF891
:103EB0002F00C00718B3FFE740F25010C2F2000015
:103EC0000078C007D8B9FFE740F27200C2F20000E4
:103ED000007838B9FFE740F27201C2F20001012018
:103EE00008700BE040F27201C2F20001002008707D
:103EF00040F26811C2F200010880FFE7FFE79DF879
:103F00002F00800700283BD5FFE740F25010C2F297
:103F1000000000788007002832D4FFE740F27200EA
:103F2000C2F20000007801280DD1FFE740F27201D3
:103F3000C2F200010220087040F26811C2F20001D2
:103F4000282008801BE040F27200C2F200000078D6
:103F5000022813D1FFE740F26810C2F20000018886
:103F6000023901800088652807DBFFE740F268110D
:103F7000C2F2000164200880FFE7FFE7FFE7FFE7E8
:103F80009DF82F004007002839D5FFE740F2501078
:103F9000C2F2000000784007002830D4FFE740F26A
:103FA0007200C2F20000007801280DD1FFE740F254
:103FB0007201C2F200010220087040F26811C2F2E0
:103FC00000012820088019E040F27200C2F20000CF
:103FD0000078022811D1FFE740F26810C2F2000019
:103FE0000088052808DBFFE740F26811C2F20001F3
:103FF000088802300880FFE7FFE7FFE7FFE79DF84A
:104000002F000007002842D5FFE740F25010C2F20F
:10401000000000780007002839D4FFE740F20800CC
:10402000C2F200000178013101700078042807DB3A
:10403000FFE740F20801C2F2000101200870FFE72B
:1040400040F20800C2F200000078032807D1FFE721
:1040500040F20601C2F200013220088016E040F270
:104060000800C2F200000078022807D1FFE740F202
:104070000601C2F200011E20088006E040F206019F
:10408000C2F200010F200880FFE7FFE7FFE740F2E0
:104090000800C2F2000000788DF83A009DF82F0069
:1040A00040F25011C2F20001087000208DF82E007D
:1040B00040F27200C2F20000007802284FD1FFE700
:1040C00040F27000C2F20000008801283EDBFFE7EA
:1040D00040F27000C2F20000008840F20601C2F215
:1040E00000010988884231DAFFE740F27000C2F22D
:1040F00000000088092804DCFFE700208DF82E006E
:1041000023E040F27000C2F20000008800F016FCCC
:10411000019040F20600C2F20000008800F0F6FBB9
:104120000146019800F014FB029040F26810C2F2C0
:104130000000008800F0EAFB0146029800F012FC43
:1041400000F0C8FB8DF82E00FFE707E040F2681092
:10415000C2F2000000788DF82E00FFE703E0002097
:104160008DF82E00FFE79DF82E008DF83B0040F201
:104170006C10C2F200000090012101704160082122
:1041800001729DF8341041729DF8351081729DF8CE
:104190003610C1729DF8371001739DF838104173C5
:1041A0009DF8391081739DF83A10C1739DF83B104A
:1041B0000174FCF74BFA48B1FFE740F60040C4F247
:1041C00001004FF40071FCF799FFFFE73220FCF784
:1041D000CBFD45E580B584B00390002002900190AE
:1041E000FFE7019804280CDCFFE70398FCF790FB3D
:1041F0000146029808440290FFE7019801300190BF
:10420000EFE702984CF6CD41CCF6CC41A0FB011073
:10421000C0F38F0004B080BD2DE9C04130B4DFF899
:10422000A8C23CEA111418BF3CEA131400F0F08055
:104230001CEA111481EA030544EAD57418BF1CEA8C
:10424000131500F0CB80A4EB050404F17F7404F592
:1042500000344FF0004545EAC12145EAC32341EA55
:10426000505143EA52534FEAC0204FEAC2229942CA
:1042700008BF904200F0A0804FEA13650FF2481685
:10428000765D4FEA134506FB05F7C7F1807706FB1D
:1042900007F74FEAD737A7FB03687642A7FB06CE9E
:1042A000C8F5803838BFA8F1010807FB08E6A6FB6F
:1042B000028C4FF0000EE6FB03CED8F100086FEA47
:1042C0000C0C5CF1000C6FEA0E0E4EF1004EA6FBDA
:1042D0000C584FF00007E6FB0E87A1FB08C6A0FBB9
:1042E00007CE16EB0E064FF0000545F10005E1FB89
:1042F000076515F1E04E7EBFA4F580345FEA4606FF
:104300006D4116F1800745F100054FEA172747EA8E
:1043100005674FEA15254FEA0666A6F1DE46B6F1B7
:10432000805F20D9384605EBC47124F0010C01EB05
:104330000C11BCF1FE6F02D8F0BCBDE80081244234
:104340005CBF01F5801E9EEAC47F02D4F0BCBDE8CC
:104350000081244200F13980A1F1C041F0BCBDE8E8
:10436000004100F0EFB94FEAD02040EA41504FEA57
:10437000D1214FEAD22242EA43524FEAD323A7FB8C
:10438000028607FB036605FB02661EEA0E0F58BF96
:10439000A6EB0056B6EB00564FEA520E4EEAC37E2D
:1043A00018EB0E0E56EB530EBCD518EB02085E410F
:1043B0007F1C55F10005B5E74FF480154FF000075D
:1043C0004FF000064FF00008ACE701F1C04101F0EA
:1043D00000414FF00000F0BCBDE800810CEA13156D
:1043E00011EA0C1F00D00CE013EA0C1F00F025802E
:1043F0004FF0000081EA030101F00041F0BCBDE88C
:104400000081F0BCBDE8004181EA030100F09AB9E7
:10441000F0BCBDE8004170B500F046F9097EFC3EF5
:1044200000F007B84FF0000081EA030101F00041FD
:10443000704781EA030100F085B9F0BCBDE8004196
:1044400022494FF000007047FFFDFBF9F7F5F4F249
:10445000F0EEEDEBE9E8E6E4E3E1E0DEDDDBDAD81F
:10446000D7D5D4D3D1D0CFCDCCCBCAC8C7C6C5C47D
:10447000C2C1C0BFBEBDBCBBBAB9B8B7B6B5B4B394
:10448000B2B1B0AFAEADACABAAA9A8A8A7A6A5A47F
:10449000A3A3A2A1A09F9F9E9D9C9C9B9A99999843
:1044A0009797969595949393929191908F8F8E8EE6
:1044B0008D8C8C8B8B8A8989888887878685858473
:1044C00084838382828181800000FF070000F87F5F
:1044D0004FEA41034FEA5353A3F58063D3F11E0320
:1044E000C8BFD3F1210C0CDD4FF0004242EAC122DB
:1044F00042EA505232FA03FC8CEAE17CACEBE17008
:104500007047102BC4BF0020704703F5787CBCF1C6
:10451000FF3F04D06FF0004282EA2100704770B57F
:1045200000F0C2F84992248000207047F2E7B0FA08
:1045300080F310FA03F10AD0C3F11D0303F5806381
:104540004FEA03524FEA415002EBD12170474FF03E
:104550000000704770B5DFF848C11CEA111E1EBF8D
:104560001CEA13159EEA0C0F95EA0C0F00F06F8001
:1045700081EA03044EEAD47EAE4421EA4C1123EAD8
:104580004C1341F4801143F48013AEF17F7EA1FB04
:10459000024CA0FB0365361955EB0C05A1FB034C3F
:1045A0004CF10003A0FB021C16EB0C06654153F115
:1045B0000003094218BF46F0010613F4007F0BD137
:1045C0004FEA03314FEA053041EA155140EA1650EF
:1045D00034036FF003020AE04FEAC3214FEAC5201B
:1045E00041EA555140EA5650F4026FF0020202EBE4
:1045F0002E4201EB025585EACE710AD05FEA440CE7
:1046000018BF24F0004450F1000041F1000120EAFD
:10461000D47040F2FE7C624500D270BDA84214BF47
:104620004FF080444FF04044002E08BF0024BEF1FC
:10463000806FA8BFA1F1C041BDE8704080F28280C8
:1046400001F1C04101F000414FF0000070470CEA59
:1046500013159EEA0C0F18BF95EA0C0F06D081EADD
:10466000030E4FF000000EF0004170BD00F01CF88A
:104670008900013E00F007B800F009B84FEA430C8A
:104680005FEA5C5C08D081EA030100F05BB84FEAA6
:10469000410C5FEA5C5CF6D102494FF000007047C4
:1046A0000000FF070000F87F0EF1020E2EF0030E4F
:1046B0005EF8046B364205D4012A43EB030515F579
:1046C000001F12D8012841EB010C1CF5001F0CD86B
:1046D0000ED14FEAD17C0CEB4C0C0CF1020C15F511
:1046E000001F08BF4CEBD37C04E04FF0080C01E046
:1046F0004FEAD37C0CEB4C0526FA05F606F00706CC
:10470000B6F1040C06D20EEB860CBDE870404CF0FE
:10471000010C6047DFE80CF0090B02024FF000418A
:10472000A1F500214FF0000070BD19461046012888
:1047300051EB010418BFD4F5001484BF002001F030
:10474000004170BD0808A0F500114FEA3101704723
:104750004FF47F0C1CEAD0121EBF1CEAD11392EA60
:104760000C0F93EA0C0F00F0858090EA010F48BF10
:1047700042F4807240F4000C41F400002CF07F41C0
:1047800020F07F4000B5A2EB030281420FF2081C2B
:10479000ACEB504E9EF800E0C0F100004FEA4E0E28
:1047A00000FB0EFC38BF49004FEA2C1C0CFB0EF33B
:1047B0004FEACE1E0EEB635E4FEA112C0EFB0CFC93
:1047C0004FEAC1214FEA1C5300FB031102F5FA0224
:1047D0004FEA112C0EFB0CFC4FEA01314FEADC4C86
:1047E00000FB0C1142EB2242C14228BF09184CEBDE
:1047F00003335DF804EB10EB410143EBC250B2F51B
:104800007C0F38BF704729D512F0F00F1CBF00F1A4
:10481000C04000F000407047008182838485868715
:1048200088898B8C8D8E8F919293959697999A9C6F
:104830009D9FA0A2A3A5A7A8AAACAEB0B2B3B5B7DE
:10484000B9BCBEC0C2C5C7C9CCCED1D4D7D9DCDFB4
:10485000E2E6E9ECF0F3F7FAFE0000004FEA400C64
:104860000CF1807CBCF17E4F28BF7047B0F1C04096
:1048700000F03FB90CEAD11390EA010F48BF42F4AF
:104880008072624538BF634507D213F47F0F16D09C
:1048900080EA010000F00040704710B500F0E3F836
:1048A000097EFC3E00F005B880EA010000F00040FF
:1048B000704780EA010000F0004000F01AB912F4DD
:1048C0007F0F04BF0248704780EA010000F011B971
:1048D0000000C07F41000B0ED3F19E0208D950F4B6
:1048E00000034FEA032323FA02F048BF4042704717
:1048F00010B500F0B8F800BF49922480002070473E
:104900006FF0004282EA20007047000010F0004182
:1049100048BF4042B0FA80F310FA03F2C3F19D039E
:104920000BD051EAC35101EB1220530638BF704738
:1049300000F1010008BF20F001007047B0FA80F3D9
:1049400010FA03F2C3F19D030AD0D90501EB12203E
:10495000530638BF704700F1010008BF20F0010086
:10496000704700004FF47F0C1CEAD0121EBF1CEAF7
:10497000D11392EA0C0F93EA0C0F00F0478090EAF3
:10498000010F48BF42F480724FF0004C4CEA002007
:104990004CEA012102EB0302A0FB0113A2F5000285
:1049A000002918BF43F001035B0028BF4FEA33031F
:1049B00042EB22425FEA132C4CEBC2502EBFBCEB01
:1049C000436FB2F57C0F70474FEA036CBCF1004FA8
:1049D00008BF20F00100B2F57C0F38BF70470BD53F
:1049E00082F0FF0212F5803FC8BF704700F1C0405F
:1049F000D8BF00F00040704700F5000C5FEA4C0C97
:104A000048BF7047B0F1C04000F073B80CEAD11352
:104A100090EA010F48BF42F48072624538BF634597
:104A200004D280EA010000F00040704710B500F0A9
:104A30001AF800BF8900013E00F007B800F009B87D
:104A40005FEA410C5FEA1C6C08D080EA010000F0CC
:104A500050B85FEA400C5FEA1C6CF6D14FF00040A2
:104A6000A0F5800070470EF1020E2EF0030E5EF8E6
:104A7000044B244204D44FEA4102B2F17F4F11D8D3
:104A80004FEA4003B3F17F4F0CD80ED14FEAD07CF0
:104A90000CEB4C0C0CF1020CB2F17F4F08BF4CEB4D
:104AA000D17C04E04FF0080C01E04FEAD17C0CEB24
:104AB0004C0324FA03F404F00704B4F1040C06D206
:104AC0000EEB840CBDE810404CF0010C6047DFE8B1
:104AD0000CF0070802024FF00040A0F5800010BD66
:104AE0000846420018BFD2F1807288BF00F0004033
:104AF00010BDFF2141EAD050C00570470000000002
:104B0000000000000102030406070809020304056F
:104B1000060708090A0B0C0D0E0F10100102000009
:104B2000404B000800000020100000005001000869
:104B3000504B0008100000207807000070010008AA
:104B400000127A000008320003010000100000008B
:04000005080000ED02
:00000001FF
